{
  "contractName": "Market",
  "abi": [
    {
      "constant": true,
      "inputs": [
        {
          "name": "",
          "type": "address"
        }
      ],
      "name": "storeOwners",
      "outputs": [
        {
          "name": "",
          "type": "bool"
        }
      ],
      "payable": false,
      "stateMutability": "view",
      "type": "function"
    },
    {
      "constant": true,
      "inputs": [],
      "name": "numStores",
      "outputs": [
        {
          "name": "",
          "type": "uint256"
        }
      ],
      "payable": false,
      "stateMutability": "view",
      "type": "function"
    },
    {
      "constant": true,
      "inputs": [],
      "name": "closed",
      "outputs": [
        {
          "name": "",
          "type": "bool"
        }
      ],
      "payable": false,
      "stateMutability": "view",
      "type": "function"
    },
    {
      "constant": true,
      "inputs": [
        {
          "name": "",
          "type": "address"
        }
      ],
      "name": "administrators",
      "outputs": [
        {
          "name": "",
          "type": "bool"
        }
      ],
      "payable": false,
      "stateMutability": "view",
      "type": "function"
    },
    {
      "constant": true,
      "inputs": [],
      "name": "owner",
      "outputs": [
        {
          "name": "",
          "type": "address"
        }
      ],
      "payable": false,
      "stateMutability": "view",
      "type": "function"
    },
    {
      "constant": true,
      "inputs": [
        {
          "name": "",
          "type": "uint256"
        }
      ],
      "name": "stores",
      "outputs": [
        {
          "name": "name",
          "type": "string"
        },
        {
          "name": "owner",
          "type": "address"
        },
        {
          "name": "balance",
          "type": "uint256"
        },
        {
          "name": "numProducts",
          "type": "uint256"
        }
      ],
      "payable": false,
      "stateMutability": "view",
      "type": "function"
    },
    {
      "inputs": [],
      "payable": false,
      "stateMutability": "nonpayable",
      "type": "constructor"
    },
    {
      "anonymous": false,
      "inputs": [],
      "name": "MarketClosed",
      "type": "event"
    },
    {
      "anonymous": false,
      "inputs": [],
      "name": "MarketOpened",
      "type": "event"
    },
    {
      "anonymous": false,
      "inputs": [
        {
          "indexed": true,
          "name": "administrator",
          "type": "address"
        }
      ],
      "name": "AdministratorAdded",
      "type": "event"
    },
    {
      "anonymous": false,
      "inputs": [
        {
          "indexed": true,
          "name": "administrator",
          "type": "address"
        }
      ],
      "name": "AdministratorRemoved",
      "type": "event"
    },
    {
      "anonymous": false,
      "inputs": [
        {
          "indexed": true,
          "name": "storeOwner",
          "type": "address"
        }
      ],
      "name": "StoreOwnerAdded",
      "type": "event"
    },
    {
      "anonymous": false,
      "inputs": [
        {
          "indexed": true,
          "name": "storeOwner",
          "type": "address"
        }
      ],
      "name": "StoreOwnerRemoved",
      "type": "event"
    },
    {
      "anonymous": false,
      "inputs": [
        {
          "indexed": true,
          "name": "storeID",
          "type": "uint256"
        },
        {
          "indexed": true,
          "name": "owner",
          "type": "address"
        },
        {
          "indexed": false,
          "name": "name",
          "type": "string"
        }
      ],
      "name": "StoreCreated",
      "type": "event"
    },
    {
      "anonymous": false,
      "inputs": [
        {
          "indexed": true,
          "name": "storeID",
          "type": "uint256"
        }
      ],
      "name": "StoreRemoved",
      "type": "event"
    },
    {
      "anonymous": false,
      "inputs": [
        {
          "indexed": true,
          "name": "storeID",
          "type": "uint256"
        },
        {
          "indexed": false,
          "name": "name",
          "type": "string"
        }
      ],
      "name": "StoreNameChanged",
      "type": "event"
    },
    {
      "anonymous": false,
      "inputs": [
        {
          "indexed": true,
          "name": "storeID",
          "type": "uint256"
        },
        {
          "indexed": true,
          "name": "productID",
          "type": "uint256"
        },
        {
          "indexed": false,
          "name": "name",
          "type": "string"
        },
        {
          "indexed": false,
          "name": "description",
          "type": "string"
        },
        {
          "indexed": false,
          "name": "price",
          "type": "uint256"
        },
        {
          "indexed": false,
          "name": "quantity",
          "type": "uint256"
        }
      ],
      "name": "ProductAdded",
      "type": "event"
    },
    {
      "anonymous": false,
      "inputs": [
        {
          "indexed": true,
          "name": "storeID",
          "type": "uint256"
        },
        {
          "indexed": true,
          "name": "productID",
          "type": "uint256"
        }
      ],
      "name": "ProductRemoved",
      "type": "event"
    },
    {
      "anonymous": false,
      "inputs": [
        {
          "indexed": true,
          "name": "storeID",
          "type": "uint256"
        },
        {
          "indexed": true,
          "name": "productID",
          "type": "uint256"
        },
        {
          "indexed": false,
          "name": "name",
          "type": "string"
        }
      ],
      "name": "ProductNameChanged",
      "type": "event"
    },
    {
      "anonymous": false,
      "inputs": [
        {
          "indexed": true,
          "name": "storeID",
          "type": "uint256"
        },
        {
          "indexed": true,
          "name": "productID",
          "type": "uint256"
        },
        {
          "indexed": false,
          "name": "description",
          "type": "string"
        }
      ],
      "name": "ProductDescriptionChanged",
      "type": "event"
    },
    {
      "anonymous": false,
      "inputs": [
        {
          "indexed": true,
          "name": "storeID",
          "type": "uint256"
        },
        {
          "indexed": true,
          "name": "productID",
          "type": "uint256"
        },
        {
          "indexed": false,
          "name": "price",
          "type": "uint256"
        }
      ],
      "name": "ProductPriceChanged",
      "type": "event"
    },
    {
      "anonymous": false,
      "inputs": [
        {
          "indexed": true,
          "name": "storeID",
          "type": "uint256"
        },
        {
          "indexed": true,
          "name": "productID",
          "type": "uint256"
        },
        {
          "indexed": false,
          "name": "quantity",
          "type": "uint256"
        }
      ],
      "name": "ProductQuantityChanged",
      "type": "event"
    },
    {
      "anonymous": false,
      "inputs": [
        {
          "indexed": true,
          "name": "storeID",
          "type": "uint256"
        },
        {
          "indexed": true,
          "name": "owner",
          "type": "address"
        },
        {
          "indexed": false,
          "name": "amount",
          "type": "uint256"
        }
      ],
      "name": "FundsWithdrawn",
      "type": "event"
    },
    {
      "anonymous": false,
      "inputs": [
        {
          "indexed": true,
          "name": "storeID",
          "type": "uint256"
        },
        {
          "indexed": true,
          "name": "productID",
          "type": "uint256"
        },
        {
          "indexed": false,
          "name": "quantity",
          "type": "uint256"
        },
        {
          "indexed": false,
          "name": "amount",
          "type": "uint256"
        }
      ],
      "name": "ProductPurchased",
      "type": "event"
    },
    {
      "constant": false,
      "inputs": [],
      "name": "close",
      "outputs": [],
      "payable": false,
      "stateMutability": "nonpayable",
      "type": "function"
    },
    {
      "constant": false,
      "inputs": [],
      "name": "open",
      "outputs": [],
      "payable": false,
      "stateMutability": "nonpayable",
      "type": "function"
    },
    {
      "constant": false,
      "inputs": [
        {
          "name": "administrator",
          "type": "address"
        }
      ],
      "name": "addAdministrator",
      "outputs": [],
      "payable": false,
      "stateMutability": "nonpayable",
      "type": "function"
    },
    {
      "constant": false,
      "inputs": [
        {
          "name": "administrator",
          "type": "address"
        }
      ],
      "name": "removeAdministrator",
      "outputs": [],
      "payable": false,
      "stateMutability": "nonpayable",
      "type": "function"
    },
    {
      "constant": false,
      "inputs": [
        {
          "name": "storeOwner",
          "type": "address"
        }
      ],
      "name": "addStoreOwner",
      "outputs": [],
      "payable": false,
      "stateMutability": "nonpayable",
      "type": "function"
    },
    {
      "constant": false,
      "inputs": [
        {
          "name": "storeOwner",
          "type": "address"
        }
      ],
      "name": "removeStoreOwner",
      "outputs": [],
      "payable": false,
      "stateMutability": "nonpayable",
      "type": "function"
    },
    {
      "constant": false,
      "inputs": [
        {
          "name": "name",
          "type": "string"
        }
      ],
      "name": "createStore",
      "outputs": [
        {
          "name": "storeID",
          "type": "uint256"
        }
      ],
      "payable": false,
      "stateMutability": "nonpayable",
      "type": "function"
    },
    {
      "constant": false,
      "inputs": [
        {
          "name": "storeID",
          "type": "uint256"
        }
      ],
      "name": "removeStore",
      "outputs": [],
      "payable": false,
      "stateMutability": "nonpayable",
      "type": "function"
    },
    {
      "constant": false,
      "inputs": [
        {
          "name": "storeID",
          "type": "uint256"
        },
        {
          "name": "name",
          "type": "string"
        }
      ],
      "name": "changeStoreName",
      "outputs": [],
      "payable": false,
      "stateMutability": "nonpayable",
      "type": "function"
    },
    {
      "constant": false,
      "inputs": [
        {
          "name": "storeID",
          "type": "uint256"
        },
        {
          "name": "name",
          "type": "string"
        },
        {
          "name": "description",
          "type": "string"
        },
        {
          "name": "price",
          "type": "uint256"
        },
        {
          "name": "quantity",
          "type": "uint256"
        }
      ],
      "name": "addProduct",
      "outputs": [
        {
          "name": "productID",
          "type": "uint256"
        }
      ],
      "payable": false,
      "stateMutability": "nonpayable",
      "type": "function"
    },
    {
      "constant": false,
      "inputs": [
        {
          "name": "storeID",
          "type": "uint256"
        },
        {
          "name": "productID",
          "type": "uint256"
        }
      ],
      "name": "removeProduct",
      "outputs": [],
      "payable": false,
      "stateMutability": "nonpayable",
      "type": "function"
    },
    {
      "constant": false,
      "inputs": [
        {
          "name": "storeID",
          "type": "uint256"
        },
        {
          "name": "productID",
          "type": "uint256"
        },
        {
          "name": "name",
          "type": "string"
        }
      ],
      "name": "changeProductName",
      "outputs": [],
      "payable": false,
      "stateMutability": "nonpayable",
      "type": "function"
    },
    {
      "constant": false,
      "inputs": [
        {
          "name": "storeID",
          "type": "uint256"
        },
        {
          "name": "productID",
          "type": "uint256"
        },
        {
          "name": "description",
          "type": "string"
        }
      ],
      "name": "changeProductDescription",
      "outputs": [],
      "payable": false,
      "stateMutability": "nonpayable",
      "type": "function"
    },
    {
      "constant": false,
      "inputs": [
        {
          "name": "storeID",
          "type": "uint256"
        },
        {
          "name": "productID",
          "type": "uint256"
        },
        {
          "name": "price",
          "type": "uint256"
        }
      ],
      "name": "changeProductPrice",
      "outputs": [],
      "payable": false,
      "stateMutability": "nonpayable",
      "type": "function"
    },
    {
      "constant": false,
      "inputs": [
        {
          "name": "storeID",
          "type": "uint256"
        },
        {
          "name": "productID",
          "type": "uint256"
        },
        {
          "name": "quantity",
          "type": "uint256"
        }
      ],
      "name": "changeProductQuantity",
      "outputs": [],
      "payable": false,
      "stateMutability": "nonpayable",
      "type": "function"
    },
    {
      "constant": false,
      "inputs": [
        {
          "name": "storeID",
          "type": "uint256"
        },
        {
          "name": "amount",
          "type": "uint256"
        }
      ],
      "name": "withdrawFunds",
      "outputs": [],
      "payable": false,
      "stateMutability": "nonpayable",
      "type": "function"
    },
    {
      "constant": false,
      "inputs": [
        {
          "name": "storeID",
          "type": "uint256"
        },
        {
          "name": "productID",
          "type": "uint256"
        },
        {
          "name": "quantity",
          "type": "uint256"
        }
      ],
      "name": "purchaseProduct",
      "outputs": [],
      "payable": true,
      "stateMutability": "payable",
      "type": "function"
    },
    {
      "constant": true,
      "inputs": [
        {
          "name": "storeID",
          "type": "uint256"
        }
      ],
      "name": "getStore",
      "outputs": [
        {
          "name": "name",
          "type": "string"
        },
        {
          "name": "storeOwner",
          "type": "address"
        },
        {
          "name": "balance",
          "type": "uint256"
        }
      ],
      "payable": false,
      "stateMutability": "view",
      "type": "function"
    },
    {
      "constant": true,
      "inputs": [
        {
          "name": "storeID",
          "type": "uint256"
        },
        {
          "name": "productID",
          "type": "uint256"
        }
      ],
      "name": "getProduct",
      "outputs": [
        {
          "name": "name",
          "type": "string"
        },
        {
          "name": "description",
          "type": "string"
        },
        {
          "name": "price",
          "type": "uint256"
        },
        {
          "name": "quantity",
          "type": "uint256"
        }
      ],
      "payable": false,
      "stateMutability": "view",
      "type": "function"
    }
  ],
  "bytecode": "0x608060405234801561001057600080fd5b50336000806101000a81548173ffffffffffffffffffffffffffffffffffffffff021916908373ffffffffffffffffffffffffffffffffffffffff160217905550613c34806100606000396000f300608060405260043610610149576000357c0100000000000000000000000000000000000000000000000000000000900463ffffffff16806301db5b481461014e57806302703acf1461022f578063057cc2a11461026357806324f346ab146102be57806343d726d6146103e8578063492c5b9e146103ff5780635287d5351461042a57806355107fa014610461578063597e1fb5146104d45780636174fdd11461050357806368fa81341461054657806376be15851461058957806383403120146105e45780638da5cb5b146106c45780639adeb5f11461071b5780639bc0432c1461075e578063c5f964f71461078b578063c999117614610808578063cf1be85f1461084b578063d0e04fe31461088c578063d39b18a714610909578063e52531051461094a578063e8a59cd814610981578063f1ef415c14610a68578063fcfff16f14610ae5575b600080fd5b34801561015a57600080fd5b5061021960048036038101908080359060200190929190803590602001908201803590602001908080601f0160208091040260200160405190810160405280939291908181526020018383808284378201915050505050509192919290803590602001908201803590602001908080601f01602080910402602001604051908101604052809392919081815260200183838082843782019150505050505091929192908035906020019092919080359060200190929190505050610afc565b6040518082815260200191505060405180910390f35b610261600480360381019080803590602001909291908035906020019092919080359060200190929190505050610ef7565b005b34801561026f57600080fd5b506102a4600480360381019080803573ffffffffffffffffffffffffffffffffffffffff169060200190929190505050611367565b604051808215151515815260200191505060405180910390f35b3480156102ca57600080fd5b506102f36004803603810190808035906020019092919080359060200190929190505050611387565b604051808060200180602001858152602001848152602001838103835287818151815260200191508051906020019080838360005b83811015610343578082015181840152602081019050610328565b50505050905090810190601f1680156103705780820380516001836020036101000a031916815260200191505b50838103825286818151815260200191508051906020019080838360005b838110156103a957808201518184015260208101905061038e565b50505050905090810190601f1680156103d65780820380516001836020036101000a031916815260200191505b50965050505050505060405180910390f35b3480156103f457600080fd5b506103fd61157a565b005b34801561040b57600080fd5b50610414611687565b6040518082815260200191505060405180910390f35b34801561043657600080fd5b5061045f600480360381019080803590602001909291908035906020019092919050505061168d565b005b34801561046d57600080fd5b506104d260048036038101908080359060200190929190803590602001908201803590602001908080601f016020809104026020016040519081016040528093929190818152602001838380828437820191505050505050919291929050505061193a565b005b3480156104e057600080fd5b506104e9611c27565b604051808215151515815260200191505060405180910390f35b34801561050f57600080fd5b50610544600480360381019080803573ffffffffffffffffffffffffffffffffffffffff169060200190929190505050611c3a565b005b34801561055257600080fd5b50610587600480360381019080803573ffffffffffffffffffffffffffffffffffffffff169060200190929190505050611e44565b005b34801561059557600080fd5b506105ca600480360381019080803573ffffffffffffffffffffffffffffffffffffffff16906020019092919050505061202b565b604051808215151515815260200191505060405180910390f35b3480156105f057600080fd5b5061060f6004803603810190808035906020019092919050505061204b565b60405180806020018473ffffffffffffffffffffffffffffffffffffffff1673ffffffffffffffffffffffffffffffffffffffff168152602001838152602001828103825285818151815260200191508051906020019080838360005b8381101561068757808201518184015260208101905061066c565b50505050905090810190601f1680156106b45780820380516001836020036101000a031916815260200191505b5094505050505060405180910390f35b3480156106d057600080fd5b506106d961215a565b604051808273ffffffffffffffffffffffffffffffffffffffff1673ffffffffffffffffffffffffffffffffffffffff16815260200191505060405180910390f35b34801561072757600080fd5b5061075c600480360381019080803573ffffffffffffffffffffffffffffffffffffffff16906020019092919050505061217f565b005b34801561076a57600080fd5b5061078960048036038101908080359060200190929190505050612389565b005b34801561079757600080fd5b506108066004803603810190808035906020019092919080359060200190929190803590602001908201803590602001908080601f0160208091040260200160405190810160405280939291908181526020018383808284378201915050505050509192919290505050612699565b005b34801561081457600080fd5b50610849600480360381019080803573ffffffffffffffffffffffffffffffffffffffff16906020019092919050505061299c565b005b34801561085757600080fd5b5061088a600480360381019080803590602001909291908035906020019092919080359060200190929190505050612b82565b005b34801561089857600080fd5b506108f3600480360381019080803590602001908201803590602001908080601f0160208091040260200160405190810160405280939291908181526020018383808284378201915050505050509192919290505050612e10565b6040518082815260200191505060405180910390f35b34801561091557600080fd5b506109486004803603810190808035906020019092919080359060200190929190803590602001909291905050506130eb565b005b34801561095657600080fd5b5061097f6004803603810190808035906020019092919080359060200190929190505050613379565b005b34801561098d57600080fd5b506109ac600480360381019080803590602001909291905050506135a4565b60405180806020018573ffffffffffffffffffffffffffffffffffffffff1673ffffffffffffffffffffffffffffffffffffffff168152602001848152602001838152602001828103825286818151815260200191508051906020019080838360005b83811015610a2a578082015181840152602081019050610a0f565b50505050905090810190601f168015610a575780820380516001836020036101000a031916815260200191505b509550505050505060405180910390f35b348015610a7457600080fd5b50610ae36004803603810190808035906020019092919080359060200190929190803590602001908201803590602001908080601f016020809104026020016040519081016040528093929190818152602001838380828437820191505050505050919291929050505061368c565b005b348015610af157600080fd5b50610afa61398f565b005b600080600060149054906101000a900460ff16151515610b84576040517f08c379a00000000000000000000000000000000000000000000000000000000081526004018080602001828103825260158152602001807f546865206d61726b657420697320636c6f7365642e000000000000000000000081525060200191505060405180910390fd5b600260003373ffffffffffffffffffffffffffffffffffffffff1673ffffffffffffffffffffffffffffffffffffffff16815260200190815260200160002060009054906101000a900460ff161515610c45576040517f08c379a00000000000000000000000000000000000000000000000000000000081526004018080602001828103825260208152602001807f4f6e6c792073746f7265206f776e6572732063616e2063616c6c20746869732e81525060200191505060405180910390fd5b866004600082815260200190815260200160002060010160009054906101000a900473ffffffffffffffffffffffffffffffffffffffff1673ffffffffffffffffffffffffffffffffffffffff163373ffffffffffffffffffffffffffffffffffffffff16141515610d1f576040517f08c379a000000000000000000000000000000000000000000000000000000000815260040180806020018281038252601f8152602001807f4f6e6c792073746f7265206f776e65722063616e2063616c6c20746869732e0081525060200191505060405180910390fd5b600460008981526020019081526020016000209150816003016000815480929190600101919050559250608060405190810160405280888152602001878152602001868152602001858152508260040160008581526020019081526020016000206000820151816000019080519060200190610d9c929190613a9b565b506020820151816001019080519060200190610db9929190613a9b565b50604082015181600201556060820151816003015590505082887f982cd1764d3c3f922523ee2e4abc3b6cee55b1da5d6a966aa60ce3b9a927fa5c89898989604051808060200180602001858152602001848152602001838103835287818151815260200191508051906020019080838360005b83811015610e48578082015181840152602081019050610e2d565b50505050905090810190601f168015610e755780820380516001836020036101000a031916815260200191505b50838103825286818151815260200191508051906020019080838360005b83811015610eae578082015181840152602081019050610e93565b50505050905090810190601f168015610edb5780820380516001836020036101000a031916815260200191505b50965050505050505060405180910390a3505095945050505050565b60008060149054906101000a900460ff16151515610f7d576040517f08c379a00000000000000000000000000000000000000000000000000000000081526004018080602001828103825260158152602001807f546865206d61726b657420697320636c6f7365642e000000000000000000000081525060200191505060405180910390fd5b83600260006004600084815260200190815260200160002060010160009054906101000a900473ffffffffffffffffffffffffffffffffffffffff1673ffffffffffffffffffffffffffffffffffffffff1673ffffffffffffffffffffffffffffffffffffffff16815260200190815260200160002060009054906101000a900460ff161515611075576040517f08c379a00000000000000000000000000000000000000000000000000000000081526004018080602001828103825260208152602001807f5468652073746f7265206f776e6572206973206e6f7420617070726f7665642e81525060200191505060405180910390fd5b84848460046000848152602001908152602001600020600401600083815260200190815260200160002060030154811115151561111a576040517f08c379a00000000000000000000000000000000000000000000000000000000081526004018080602001828103825260168152602001807f5175616e74697479206e6f7420696e2073746f636b2e0000000000000000000081525060200191505060405180910390fd5b6004600089815260200190815260200160002060040160008881526020019081526020016000206002015473__Math__________________________________631d3b9edf9091886040518363ffffffff167c0100000000000000000000000000000000000000000000000000000000028152600401808381526020018281526020019250505060206040518083038186803b1580156111b957600080fd5b505af41580156111cd573d6000803e3d6000fd5b505050506040513d60208110156111e357600080fd5b8101908080519060200190929190505050945084341015151561126e576040517f08c379a00000000000000000000000000000000000000000000000000000000081526004018080602001828103825260168152602001807f596f75206469646e27742070617920656e6f7567682e0000000000000000000081525060200191505060405180910390fd5b84600460008a81526020019081526020016000206002016000828254019250508190555085600460008a815260200190815260200160002060040160008981526020019081526020016000206003016000828254039250508190555086887fbd12af3cbde00f4402dea8cb44cefe8b04d1b1e75d839b49e3cb050a361ad70f8888604051808381526020018281526020019250505060405180910390a38434111561135d573373ffffffffffffffffffffffffffffffffffffffff166108fc8634039081150290604051600060405180830381858888f1935050505015801561135b573d6000803e3d6000fd5b505b5050505050505050565b60026020528060005260406000206000915054906101000a900460ff1681565b6060806000806004600087815260200190815260200160002060040160008681526020019081526020016000206000018054600181600116156101000203166002900480601f01602080910402602001604051908101604052809291908181526020018280546001816001161561010002031660029004801561144b5780601f106114205761010080835404028352916020019161144b565b820191906000526020600020905b81548152906001019060200180831161142e57829003601f168201915b505050505093506004600087815260200190815260200160002060040160008681526020019081526020016000206001018054600181600116156101000203166002900480601f0160208091040260200160405190810160405280929190818152602001828054600181600116156101000203166002900480156115105780601f106114e557610100808354040283529160200191611510565b820191906000526020600020905b8154815290600101906020018083116114f357829003601f168201915b5050505050925060046000878152602001908152602001600020600401600086815260200190815260200160002060020154915060046000878152602001908152602001600020600401600086815260200190815260200160002060030154905092959194509250565b6000809054906101000a900473ffffffffffffffffffffffffffffffffffffffff1673ffffffffffffffffffffffffffffffffffffffff163373ffffffffffffffffffffffffffffffffffffffff1614151561163e576040517f08c379a000000000000000000000000000000000000000000000000000000000815260040180806020018281038252601d8152602001807f4f6e6c79206f776e65722063616e2063616e2063616c6c20746869732e00000081525060200191505060405180910390fd5b6001600060146101000a81548160ff0219169083151502179055507f0b5f6bf058282d5cc003efc735b9ee453bbd7f9bef4c6db6300d095f3eefac2860405160405180910390a1565b60035481565b600060149054906101000a900460ff16151515611712576040517f08c379a00000000000000000000000000000000000000000000000000000000081526004018080602001828103825260158152602001807f546865206d61726b657420697320636c6f7365642e000000000000000000000081525060200191505060405180910390fd5b600260003373ffffffffffffffffffffffffffffffffffffffff1673ffffffffffffffffffffffffffffffffffffffff16815260200190815260200160002060009054906101000a900460ff1615156117d3576040517f08c379a00000000000000000000000000000000000000000000000000000000081526004018080602001828103825260208152602001807f4f6e6c792073746f7265206f776e6572732063616e2063616c6c20746869732e81525060200191505060405180910390fd5b816004600082815260200190815260200160002060010160009054906101000a900473ffffffffffffffffffffffffffffffffffffffff1673ffffffffffffffffffffffffffffffffffffffff163373ffffffffffffffffffffffffffffffffffffffff161415156118ad576040517f08c379a000000000000000000000000000000000000000000000000000000000815260040180806020018281038252601f8152602001807f4f6e6c792073746f7265206f776e65722063616e2063616c6c20746869732e0081525060200191505060405180910390fd5b600460008481526020019081526020016000206004016000838152602001908152602001600020600080820160006118e59190613b1b565b6001820160006118f59190613b1b565b60028201600090556003820160009055505081837fd647384cccbd8b477a7b02b9e866072937e9a23b473b9de13fc0c6cb1d392a0a60405160405180910390a3505050565b600060149054906101000a900460ff161515156119bf576040517f08c379a00000000000000000000000000000000000000000000000000000000081526004018080602001828103825260158152602001807f546865206d61726b657420697320636c6f7365642e000000000000000000000081525060200191505060405180910390fd5b600260003373ffffffffffffffffffffffffffffffffffffffff1673ffffffffffffffffffffffffffffffffffffffff16815260200190815260200160002060009054906101000a900460ff161515611a80576040517f08c379a00000000000000000000000000000000000000000000000000000000081526004018080602001828103825260208152602001807f4f6e6c792073746f7265206f776e6572732063616e2063616c6c20746869732e81525060200191505060405180910390fd5b816004600082815260200190815260200160002060010160009054906101000a900473ffffffffffffffffffffffffffffffffffffffff1673ffffffffffffffffffffffffffffffffffffffff163373ffffffffffffffffffffffffffffffffffffffff16141515611b5a576040517f08c379a000000000000000000000000000000000000000000000000000000000815260040180806020018281038252601f8152602001807f4f6e6c792073746f7265206f776e65722063616e2063616c6c20746869732e0081525060200191505060405180910390fd5b81600460008581526020019081526020016000206000019080519060200190611b84929190613b63565b50827f3777a86c25d1944456e030092a810c4de4831e3e834711147abc6465ddace809836040518080602001828103825283818151815260200191508051906020019080838360005b83811015611be8578082015181840152602081019050611bcd565b50505050905090810190601f168015611c155780820380516001836020036101000a031916815260200191505b509250505060405180910390a2505050565b600060149054906101000a900460ff1681565b600060149054906101000a900460ff16151515611cbf576040517f08c379a00000000000000000000000000000000000000000000000000000000081526004018080602001828103825260158152602001807f546865206d61726b657420697320636c6f7365642e000000000000000000000081525060200191505060405180910390fd5b600160003373ffffffffffffffffffffffffffffffffffffffff1673ffffffffffffffffffffffffffffffffffffffff16815260200190815260200160002060009054906101000a900460ff161515611da6576040517f08c379a00000000000000000000000000000000000000000000000000000000081526004018080602001828103825260228152602001807f4f6e6c792061646d696e6973747261746f72732063616e2063616c6c2074686981526020017f732e00000000000000000000000000000000000000000000000000000000000081525060400191505060405180910390fd5b6000600260008373ffffffffffffffffffffffffffffffffffffffff1673ffffffffffffffffffffffffffffffffffffffff16815260200190815260200160002060006101000a81548160ff0219169083151502179055508073ffffffffffffffffffffffffffffffffffffffff167fee8258b57c171df72836d554f2addcb97a3be3652a6f9f58a431063096c0b84060405160405180910390a250565b600060149054906101000a900460ff16151515611ec9576040517f08c379a00000000000000000000000000000000000000000000000000000000081526004018080602001828103825260158152602001807f546865206d61726b657420697320636c6f7365642e000000000000000000000081525060200191505060405180910390fd5b6000809054906101000a900473ffffffffffffffffffffffffffffffffffffffff1673ffffffffffffffffffffffffffffffffffffffff163373ffffffffffffffffffffffffffffffffffffffff16141515611f8d576040517f08c379a000000000000000000000000000000000000000000000000000000000815260040180806020018281038252601d8152602001807f4f6e6c79206f776e65722063616e2063616e2063616c6c20746869732e00000081525060200191505060405180910390fd5b6000600160008373ffffffffffffffffffffffffffffffffffffffff1673ffffffffffffffffffffffffffffffffffffffff16815260200190815260200160002060006101000a81548160ff0219169083151502179055508073ffffffffffffffffffffffffffffffffffffffff167fd5c9a61a4ab4b84f78da506149b7b0d376843283a81eee2dbdc9a55f988ab64360405160405180910390a250565b60016020528060005260406000206000915054906101000a900460ff1681565b6060600080600460008581526020019081526020016000206000018054600181600116156101000203166002900480601f0160208091040260200160405190810160405280929190818152602001828054600181600116156101000203166002900480156120fa5780601f106120cf576101008083540402835291602001916120fa565b820191906000526020600020905b8154815290600101906020018083116120dd57829003601f168201915b505050505092506004600085815260200190815260200160002060010160009054906101000a900473ffffffffffffffffffffffffffffffffffffffff169150600460008581526020019081526020016000206002015490509193909250565b6000809054906101000a900473ffffffffffffffffffffffffffffffffffffffff1681565b600060149054906101000a900460ff16151515612204576040517f08c379a00000000000000000000000000000000000000000000000000000000081526004018080602001828103825260158152602001807f546865206d61726b657420697320636c6f7365642e000000000000000000000081525060200191505060405180910390fd5b600160003373ffffffffffffffffffffffffffffffffffffffff1673ffffffffffffffffffffffffffffffffffffffff16815260200190815260200160002060009054906101000a900460ff1615156122eb576040517f08c379a00000000000000000000000000000000000000000000000000000000081526004018080602001828103825260228152602001807f4f6e6c792061646d696e6973747261746f72732063616e2063616c6c2074686981526020017f732e00000000000000000000000000000000000000000000000000000000000081525060400191505060405180910390fd5b6001600260008373ffffffffffffffffffffffffffffffffffffffff1673ffffffffffffffffffffffffffffffffffffffff16815260200190815260200160002060006101000a81548160ff0219169083151502179055508073ffffffffffffffffffffffffffffffffffffffff167fe095b54135d91dfdb849d8f2a1232ed69da67f78cfd33a34a834084d8d037e9a60405160405180910390a250565b60008060149054906101000a900460ff1615151561240f576040517f08c379a00000000000000000000000000000000000000000000000000000000081526004018080602001828103825260158152602001807f546865206d61726b657420697320636c6f7365642e000000000000000000000081525060200191505060405180910390fd5b600260003373ffffffffffffffffffffffffffffffffffffffff1673ffffffffffffffffffffffffffffffffffffffff16815260200190815260200160002060009054906101000a900460ff1615156124d0576040517f08c379a00000000000000000000000000000000000000000000000000000000081526004018080602001828103825260208152602001807f4f6e6c792073746f7265206f776e6572732063616e2063616c6c20746869732e81525060200191505060405180910390fd5b816004600082815260200190815260200160002060010160009054906101000a900473ffffffffffffffffffffffffffffffffffffffff1673ffffffffffffffffffffffffffffffffffffffff163373ffffffffffffffffffffffffffffffffffffffff161415156125aa576040517f08c379a000000000000000000000000000000000000000000000000000000000815260040180806020018281038252601f8152602001807f4f6e6c792073746f7265206f776e65722063616e2063616c6c20746869732e0081525060200191505060405180910390fd5b6004600084815260200190815260200160002060020154915060046000848152602001908152602001600020600080820160006125e79190613b1b565b6001820160006101000a81549073ffffffffffffffffffffffffffffffffffffffff0219169055600282016000905560038201600090555050827fb500ab3f4b111e50e443925c5af6e6355475364757d656efb1023cd57332476860405160405180910390a23373ffffffffffffffffffffffffffffffffffffffff166108fc839081150290604051600060405180830381858888f19350505050158015612693573d6000803e3d6000fd5b50505050565b600060149054906101000a900460ff1615151561271e576040517f08c379a00000000000000000000000000000000000000000000000000000000081526004018080602001828103825260158152602001807f546865206d61726b657420697320636c6f7365642e000000000000000000000081525060200191505060405180910390fd5b600260003373ffffffffffffffffffffffffffffffffffffffff1673ffffffffffffffffffffffffffffffffffffffff16815260200190815260200160002060009054906101000a900460ff1615156127df576040517f08c379a00000000000000000000000000000000000000000000000000000000081526004018080602001828103825260208152602001807f4f6e6c792073746f7265206f776e6572732063616e2063616c6c20746869732e81525060200191505060405180910390fd5b826004600082815260200190815260200160002060010160009054906101000a900473ffffffffffffffffffffffffffffffffffffffff1673ffffffffffffffffffffffffffffffffffffffff163373ffffffffffffffffffffffffffffffffffffffff161415156128b9576040517f08c379a000000000000000000000000000000000000000000000000000000000815260040180806020018281038252601f8152602001807f4f6e6c792073746f7265206f776e65722063616e2063616c6c20746869732e0081525060200191505060405180910390fd5b8160046000868152602001908152602001600020600401600085815260200190815260200160002060010190805190602001906128f7929190613b63565b5082847f529b7aaab9ad3d9616490f4b0f7e4dac93eb80605eef0b293449736cc824e3fd846040518080602001828103825283818151815260200191508051906020019080838360005b8381101561295c578082015181840152602081019050612941565b50505050905090810190601f1680156129895780820380516001836020036101000a031916815260200191505b509250505060405180910390a350505050565b600060149054906101000a900460ff16151515612a21576040517f08c379a00000000000000000000000000000000000000000000000000000000081526004018080602001828103825260158152602001807f546865206d61726b657420697320636c6f7365642e000000000000000000000081525060200191505060405180910390fd5b6000809054906101000a900473ffffffffffffffffffffffffffffffffffffffff1673ffffffffffffffffffffffffffffffffffffffff163373ffffffffffffffffffffffffffffffffffffffff16141515612ae5576040517f08c379a000000000000000000000000000000000000000000000000000000000815260040180806020018281038252601d8152602001807f4f6e6c79206f776e65722063616e2063616e2063616c6c20746869732e00000081525060200191505060405180910390fd5b60018060008373ffffffffffffffffffffffffffffffffffffffff1673ffffffffffffffffffffffffffffffffffffffff16815260200190815260200160002060006101000a81548160ff0219169083151502179055508073ffffffffffffffffffffffffffffffffffffffff167fe78a1675a4b4d68d04fc70b93f9c37c5288e084d9b02d718103f7ad5e292b68860405160405180910390a250565b600060149054906101000a900460ff16151515612c07576040517f08c379a00000000000000000000000000000000000000000000000000000000081526004018080602001828103825260158152602001807f546865206d61726b657420697320636c6f7365642e000000000000000000000081525060200191505060405180910390fd5b600260003373ffffffffffffffffffffffffffffffffffffffff1673ffffffffffffffffffffffffffffffffffffffff16815260200190815260200160002060009054906101000a900460ff161515612cc8576040517f08c379a00000000000000000000000000000000000000000000000000000000081526004018080602001828103825260208152602001807f4f6e6c792073746f7265206f776e6572732063616e2063616c6c20746869732e81525060200191505060405180910390fd5b826004600082815260200190815260200160002060010160009054906101000a900473ffffffffffffffffffffffffffffffffffffffff1673ffffffffffffffffffffffffffffffffffffffff163373ffffffffffffffffffffffffffffffffffffffff16141515612da2576040517f08c379a000000000000000000000000000000000000000000000000000000000815260040180806020018281038252601f8152602001807f4f6e6c792073746f7265206f776e65722063616e2063616c6c20746869732e0081525060200191505060405180910390fd5b816004600086815260200190815260200160002060040160008581526020019081526020016000206002018190555082847f518dc9cd7f6b9e2719645a01cd9692dacc0ad1ff99ebe2cf7d0df27589b0c426846040518082815260200191505060405180910390a350505050565b60008060149054906101000a900460ff16151515612e96576040517f08c379a00000000000000000000000000000000000000000000000000000000081526004018080602001828103825260158152602001807f546865206d61726b657420697320636c6f7365642e000000000000000000000081525060200191505060405180910390fd5b600260003373ffffffffffffffffffffffffffffffffffffffff1673ffffffffffffffffffffffffffffffffffffffff16815260200190815260200160002060009054906101000a900460ff161515612f57576040517f08c379a00000000000000000000000000000000000000000000000000000000081526004018080602001828103825260208152602001807f4f6e6c792073746f7265206f776e6572732063616e2063616c6c20746869732e81525060200191505060405180910390fd5b600360008154809291906001019190505590506080604051908101604052808381526020013373ffffffffffffffffffffffffffffffffffffffff168152602001600081526020016000815250600460008381526020019081526020016000206000820151816000019080519060200190612fd3929190613a9b565b5060208201518160010160006101000a81548173ffffffffffffffffffffffffffffffffffffffff021916908373ffffffffffffffffffffffffffffffffffffffff16021790555060408201518160020155606082015181600301559050503373ffffffffffffffffffffffffffffffffffffffff16817f1218a4f9a5bf1f57456cb3af4bf5bf4c29f36d11bbaf86f1fef74ed08c2930cf846040518080602001828103825283818151815260200191508051906020019080838360005b838110156130ac578082015181840152602081019050613091565b50505050905090810190601f1680156130d95780820380516001836020036101000a031916815260200191505b509250505060405180910390a3919050565b600060149054906101000a900460ff16151515613170576040517f08c379a00000000000000000000000000000000000000000000000000000000081526004018080602001828103825260158152602001807f546865206d61726b657420697320636c6f7365642e000000000000000000000081525060200191505060405180910390fd5b600260003373ffffffffffffffffffffffffffffffffffffffff1673ffffffffffffffffffffffffffffffffffffffff16815260200190815260200160002060009054906101000a900460ff161515613231576040517f08c379a00000000000000000000000000000000000000000000000000000000081526004018080602001828103825260208152602001807f4f6e6c792073746f7265206f776e6572732063616e2063616c6c20746869732e81525060200191505060405180910390fd5b826004600082815260200190815260200160002060010160009054906101000a900473ffffffffffffffffffffffffffffffffffffffff1673ffffffffffffffffffffffffffffffffffffffff163373ffffffffffffffffffffffffffffffffffffffff1614151561330b576040517f08c379a000000000000000000000000000000000000000000000000000000000815260040180806020018281038252601f8152602001807f4f6e6c792073746f7265206f776e65722063616e2063616c6c20746869732e0081525060200191505060405180910390fd5b816004600086815260200190815260200160002060040160008581526020019081526020016000206003018190555082847f4088c2f81e179e2ebfdc1ea7ba20341b9a97542a59752041bba1d820d59d4435846040518082815260200191505060405180910390a350505050565b816004600082815260200190815260200160002060010160009054906101000a900473ffffffffffffffffffffffffffffffffffffffff1673ffffffffffffffffffffffffffffffffffffffff163373ffffffffffffffffffffffffffffffffffffffff16141515613453576040517f08c379a000000000000000000000000000000000000000000000000000000000815260040180806020018281038252601f8152602001807f4f6e6c792073746f7265206f776e65722063616e2063616c6c20746869732e0081525060200191505060405180910390fd5b8282600460008381526020019081526020016000206002015481111515156134e3576040517f08c379a00000000000000000000000000000000000000000000000000000000081526004018080602001828103825260118152602001807f4e6f7420656e6f7567682045746865722e00000000000000000000000000000081525060200191505060405180910390fd5b8360046000878152602001908152602001600020600201600082825403925050819055503373ffffffffffffffffffffffffffffffffffffffff16857ff440aec6b52895984d061d622e6edeba6210f7c3e059be920663140c084560d7866040518082815260200191505060405180910390a33373ffffffffffffffffffffffffffffffffffffffff166108fc859081150290604051600060405180830381858888f1935050505015801561359c573d6000803e3d6000fd5b505050505050565b6004602052806000526040600020600091509050806000018054600181600116156101000203166002900480601f0160208091040260200160405190810160405280929190818152602001828054600181600116156101000203166002900480156136505780601f1061362557610100808354040283529160200191613650565b820191906000526020600020905b81548152906001019060200180831161363357829003601f168201915b5050505050908060010160009054906101000a900473ffffffffffffffffffffffffffffffffffffffff16908060020154908060030154905084565b600060149054906101000a900460ff16151515613711576040517f08c379a00000000000000000000000000000000000000000000000000000000081526004018080602001828103825260158152602001807f546865206d61726b657420697320636c6f7365642e000000000000000000000081525060200191505060405180910390fd5b600260003373ffffffffffffffffffffffffffffffffffffffff1673ffffffffffffffffffffffffffffffffffffffff16815260200190815260200160002060009054906101000a900460ff1615156137d2576040517f08c379a00000000000000000000000000000000000000000000000000000000081526004018080602001828103825260208152602001807f4f6e6c792073746f7265206f776e6572732063616e2063616c6c20746869732e81525060200191505060405180910390fd5b826004600082815260200190815260200160002060010160009054906101000a900473ffffffffffffffffffffffffffffffffffffffff1673ffffffffffffffffffffffffffffffffffffffff163373ffffffffffffffffffffffffffffffffffffffff161415156138ac576040517f08c379a000000000000000000000000000000000000000000000000000000000815260040180806020018281038252601f8152602001807f4f6e6c792073746f7265206f776e65722063616e2063616c6c20746869732e0081525060200191505060405180910390fd5b8160046000868152602001908152602001600020600401600085815260200190815260200160002060000190805190602001906138ea929190613b63565b5082847f689e439d18f8215f930fcff4288836077528ef49683f8f11a3adaed63df61786846040518080602001828103825283818151815260200191508051906020019080838360005b8381101561394f578082015181840152602081019050613934565b50505050905090810190601f16801561397c5780820380516001836020036101000a031916815260200191505b509250505060405180910390a350505050565b6000809054906101000a900473ffffffffffffffffffffffffffffffffffffffff1673ffffffffffffffffffffffffffffffffffffffff163373ffffffffffffffffffffffffffffffffffffffff16141515613a53576040517f08c379a000000000000000000000000000000000000000000000000000000000815260040180806020018281038252601d8152602001807f4f6e6c79206f776e65722063616e2063616e2063616c6c20746869732e00000081525060200191505060405180910390fd5b60008060146101000a81548160ff0219169083151502179055507f77b08ea60a49d0aa6ed86877c699548d14f19ab745cc9fb708a7823c67b0e13d60405160405180910390a1565b828054600181600116156101000203166002900490600052602060002090601f016020900481019282601f10613adc57805160ff1916838001178555613b0a565b82800160010185558215613b0a579182015b82811115613b09578251825591602001919060010190613aee565b5b509050613b179190613be3565b5090565b50805460018160011615610100020316600290046000825580601f10613b415750613b60565b601f016020900490600052602060002090810190613b5f9190613be3565b5b50565b828054600181600116156101000203166002900490600052602060002090601f016020900481019282601f10613ba457805160ff1916838001178555613bd2565b82800160010185558215613bd2579182015b82811115613bd1578251825591602001919060010190613bb6565b5b509050613bdf9190613be3565b5090565b613c0591905b80821115613c01576000816000905550600101613be9565b5090565b905600a165627a7a72305820667986174d756d7e740d6cbba14c47a52306fe5652db0781706daa119f5e0fe50029",
  "source": "pragma solidity ^0.4.24;\n\nimport \"../contracts/Math.sol\";\n\n/// @title Online Market\n/// @author Adam Fraser\ncontract Market {\n\n    using Math for uint;\n\n    // Struct types\n\n    // A store on the market.\n    struct Store {\n        string name;\n        address owner;\n        uint balance;\n        uint numProducts;\n        mapping (uint => Product) products;\n    }\n\n    // A product offered by a store.\n    struct Product {\n        string name;\n        string description;\n        uint price;\n        uint quantity;\n    }\n\n    // State variables\n\n    // The owner of the market.\n    address public owner;\n\n    // Whether the market is closed.\n    bool public closed;\n\n    // Store administrators.\n    mapping (address => bool) public administrators;\n\n    // Approved store owners.\n    mapping (address => bool) public storeOwners;\n\n    // The number of stores on the market.\n    uint public numStores;\n\n    // The stores on the market.\n    mapping (uint => Store) public stores;\n\n    // Events\n\n    event MarketClosed();\n\n    event MarketOpened();\n\n    event AdministratorAdded(address indexed administrator);\n\n    event AdministratorRemoved(address indexed administrator);\n\n    event StoreOwnerAdded(address indexed storeOwner);\n\n    event StoreOwnerRemoved(address indexed storeOwner);\n\n    event StoreCreated(\n        uint indexed storeID,\n        address indexed owner,\n        string name\n    );\n\n    event StoreRemoved(uint indexed storeID);\n\n    event StoreNameChanged(uint indexed storeID, string name);\n\n    event ProductAdded(\n        uint indexed storeID,\n        uint indexed productID,\n        string name,\n        string description,\n        uint price,\n        uint quantity\n    );\n\n    event ProductRemoved(uint indexed storeID, uint indexed productID);\n\n    event ProductNameChanged(\n        uint indexed storeID,\n        uint indexed productID,\n        string name\n    );\n\n    event ProductDescriptionChanged(\n        uint indexed storeID,\n        uint indexed productID,\n        string description\n    );\n\n    event ProductPriceChanged(\n        uint indexed storeID,\n        uint indexed productID,\n        uint price\n    );\n\n    event ProductQuantityChanged(\n        uint indexed storeID,\n        uint indexed productID,\n        uint quantity\n    );\n\n    event FundsWithdrawn(\n        uint indexed storeID,\n        address indexed owner,\n        uint amount\n    );\n\n    event ProductPurchased(\n        uint indexed storeID,\n        uint indexed productID,\n        uint quantity,\n        uint amount\n    );\n\n    // Modifiers\n\n    // This modifier requires that the caller is the owner of the market.\n    modifier onlyOwner {\n        require(msg.sender == owner, \"Only owner can can call this.\");\n        _;\n    }\n\n    // This modifier requires that the market is open.\n    modifier marketOpen {\n        require(!closed, \"The market is closed.\");\n        _;\n    }\n\n    // This modifier requires that the caller is an administrator.\n    modifier onlyAdministrator {\n        require(\n            administrators[msg.sender],\n            \"Only administrators can call this.\"\n        );\n        _;\n    }\n\n    // This modifier requires that the caller is an approved store owner.\n    modifier onlyStoreOwners {\n        require(storeOwners[msg.sender], \"Only store owners can call this.\");\n        _;\n    }\n\n    // This modifier requires that the caller is the owner of the store.\n    modifier onlyStoreOwner(uint storeID) {\n        require(\n            msg.sender == stores[storeID].owner,\n            \"Only store owner can call this.\"\n        );\n        _;\n    }\n\n    // This modifier requires that the store has enough ether to withdraw.\n    modifier sufficientFunds(uint storeID, uint amount) {\n        require(amount <= stores[storeID].balance, \"Not enough Ether.\");\n        _;\n    }\n\n    // This modifier requires that the owner of the store is approved.\n    modifier storeOwnerApproved(uint storeID) {\n        require(\n            storeOwners[stores[storeID].owner],\n            \"The store owner is not approved.\");\n        _;\n    }\n\n    // This modifier requires that the quantity being purchased is in stock.\n    modifier inStock(uint storeID, uint productID, uint quantity) {\n        require(\n            quantity <= stores[storeID].products[productID].quantity,\n            \"Quantity not in stock.\"\n        );\n        _;\n    }\n\n    // Constructor\n\n    // Creates an online marketplace that operates on the blockchain.\n    constructor() public {\n        owner = msg.sender;\n    }\n\n    // Owner functions\n\n    /// @notice Closes the market.\n    function close() public onlyOwner {\n        closed = true;\n        emit MarketClosed();\n    }\n\n    /// @notice Opens the market.\n    function open() public onlyOwner {\n        closed = false;\n        emit MarketOpened();\n    }\n\n    /// @notice Adds an address to the group of market admininistrators.\n    /// @param administrator The address to add.\n    function addAdministrator(address administrator)\n        public\n        marketOpen\n        onlyOwner\n    {\n        administrators[administrator] = true;\n        emit AdministratorAdded(administrator);\n    }\n\n    /// @notice Removes an address from the group of market administrators.\n    /// @param administrator The address to remove.\n    function removeAdministrator(address administrator)\n        public\n        marketOpen\n        onlyOwner\n    {\n        administrators[administrator] = false;\n        emit AdministratorRemoved(administrator);\n    }\n\n    // Admininstrator functions\n\n    /// @notice Adds an address to the list of approved store owners.\n    /// @param storeOwner The address to add.\n    function addStoreOwner(address storeOwner)\n        public\n        marketOpen\n        onlyAdministrator\n    {\n        storeOwners[storeOwner] = true;\n        emit StoreOwnerAdded(storeOwner);\n    }\n\n    /// @notice Removes an address from the list of approved store owners.\n    /// @param storeOwner The address to remove.\n    function removeStoreOwner(address storeOwner)\n        public\n        marketOpen\n        onlyAdministrator\n    {\n        storeOwners[storeOwner] = false;\n        emit StoreOwnerRemoved(storeOwner);\n    }\n\n    // Store owner functions\n\n    /// @notice Creates a new store.\n    /// @param name The name of the store.\n    /// @return The store.\n    function createStore(string name)\n        public\n        marketOpen\n        onlyStoreOwners\n        returns (uint storeID)\n    {\n        storeID = numStores++;\n        stores[storeID] = Store(name, msg.sender, 0, 0);\n        emit StoreCreated(storeID, msg.sender, name);\n    }\n\n    /// @notice Removes a store from the market and sends funds to the owner.\n    /// @param storeID The store.\n    function removeStore(uint storeID)\n        public\n        marketOpen\n        onlyStoreOwners\n        onlyStoreOwner(storeID)\n    {\n        uint balance = stores[storeID].balance;\n        delete stores[storeID];\n        emit StoreRemoved(storeID);\n        msg.sender.transfer(balance);\n    }\n\n    /// @notice Changes the name of a store.\n    /// @param storeID The store.\n    /// @param name The new name.\n    function changeStoreName(uint storeID, string name)\n        public\n        marketOpen\n        onlyStoreOwners\n        onlyStoreOwner(storeID)\n    {\n        stores[storeID].name = name;\n        emit StoreNameChanged(storeID, name);\n    }\n\n    /// @notice Adds a product to a store's inventory.\n    /// @param storeID The store.\n    /// @param name The name of the product.\n    /// @param description The IPFS hash of the description of the product.\n    /// @param price The price of the product.\n    /// @param quantity The quantity of the product.\n    /// @return The product.\n    function addProduct(\n        uint storeID,\n        string name,\n        string description,\n        uint price,\n        uint quantity\n    )\n        public\n        marketOpen\n        onlyStoreOwners\n        onlyStoreOwner(storeID)\n        returns (uint productID)\n    {\n        Store storage store = stores[storeID];\n        productID = store.numProducts++;\n        store.products[productID] = Product(\n            name,\n            description,\n            price,\n            quantity\n        );\n        emit ProductAdded(\n            storeID,\n            productID,\n            name,\n            description,\n            price,\n            quantity\n        );\n    }\n\n    /// @notice Removes a product from a store's inventory.\n    /// @param storeID The store.\n    /// @param productID The product.\n    function removeProduct(uint storeID, uint productID)\n        public\n        marketOpen\n        onlyStoreOwners\n        onlyStoreOwner(storeID)\n    {\n        delete stores[storeID].products[productID];\n        emit ProductRemoved(storeID, productID);\n    }\n\n    /// @notice Changes the name of a product in a store's inventory.\n    /// @param storeID The store.\n    /// @param productID The product.\n    /// @param name The new name.\n    function changeProductName(uint storeID, uint productID, string name)\n        public\n        marketOpen\n        onlyStoreOwners\n        onlyStoreOwner(storeID)\n    {\n        stores[storeID].products[productID].name = name;\n        emit ProductNameChanged(storeID, productID, name);\n    }\n\n    /// @notice Changes the description of a product in a store's inventory.\n    /// @param storeID The store.\n    /// @param productID The product.\n    /// @param description The IPFS hash of the new description.\n    function changeProductDescription(\n        uint storeID,\n        uint productID,\n        string description\n    )\n        public\n        marketOpen\n        onlyStoreOwners\n        onlyStoreOwner(storeID)\n    {\n        stores[storeID].products[productID].description = description;\n        emit ProductDescriptionChanged(storeID, productID, description);\n    }\n\n    /// @notice Changes the price of a product in a store's inventory.\n    /// @param storeID The store.\n    /// @param productID The product.\n    /// @param price The new price.\n    function changeProductPrice(uint storeID, uint productID, uint price)\n        public\n        marketOpen\n        onlyStoreOwners\n        onlyStoreOwner(storeID)\n    {\n        stores[storeID].products[productID].price = price;\n        emit ProductPriceChanged(storeID, productID, price);\n    }\n\n    /// @notice Changes the quantity of a product in a store's inventory.\n    /// @param storeID The store.\n    /// @param productID The product.\n    /// @param quantity The new price.\n    function changeProductQuantity(uint storeID, uint productID, uint quantity)\n        public\n        marketOpen\n        onlyStoreOwners\n        onlyStoreOwner(storeID)\n    {\n        stores[storeID].products[productID].quantity = quantity;\n        emit ProductQuantityChanged(storeID, productID, quantity);\n    }\n\n    /// @notice Withdraws funds a store has collected from sales.\n    /// @param storeID The store.\n    /// @param amount The amount to withdraw.\n    function withdrawFunds(uint storeID, uint amount)\n        public\n        onlyStoreOwner(storeID)\n        sufficientFunds(storeID, amount)\n    {\n        stores[storeID].balance -= amount;\n        emit FundsWithdrawn(storeID, msg.sender, amount);\n        msg.sender.transfer(amount);\n    }\n\n    // Generic shopper functions\n\n    /// @notice Purchases a product from a store.\n    /// @param storeID The store.\n    /// @param productID The product.\n    /// @param quantity The quantity to purchase.\n    function purchaseProduct(uint storeID, uint productID, uint quantity)\n        public\n        payable\n        marketOpen\n        storeOwnerApproved(storeID)\n        inStock(storeID, productID, quantity)\n    {\n        uint cost = stores[storeID].products[productID].price.times(quantity);\n        require(msg.value >= cost, \"You didn't pay enough.\");\n        stores[storeID].balance += cost;\n        stores[storeID].products[productID].quantity -= quantity;\n        emit ProductPurchased(storeID, productID, quantity, cost);\n        if (msg.value > cost)\n            msg.sender.transfer(msg.value - cost);\n    }\n\n    /// @notice Gets a store.\n    /// @param storeID The store.\n    /// @return The name of the store.\n    /// @return The owner of the store.\n    /// @return The balance of the store's funds.\n    function getStore(uint storeID)\n        public\n        view\n        returns (string name, address storeOwner, uint balance)\n    {\n        name = stores[storeID].name;\n        storeOwner = stores[storeID].owner;\n        balance = stores[storeID].balance;\n    }\n\n    /// @notice Gets a product.\n    /// @param storeID The store.\n    /// @param productID The product.\n    /// @return The name of the product.\n    /// @return The IPFS hash of the description of the product.\n    /// @return The price of the product.\n    /// @return The quantity of the product.\n    function getProduct(uint storeID, uint productID)\n        public\n        view\n        returns (string name, string description, uint price, uint quantity)\n    {\n        name = stores[storeID].products[productID].name;\n        description = stores[storeID].products[productID].description;\n        price = stores[storeID].products[productID].price;\n        quantity = stores[storeID].products[productID].quantity;\n    }\n}\n",
  "sourcePath": "/Users/adamfraser/Documents/online-marketplace/contracts/Market.sol",
  "compiler": {
    "name": "solc",
    "version": "0.4.24+commit.e67f0147.Emscripten.clang"
  },
  "schemaVersion": "2.0.1",
  "updatedAt": "2018-08-28T06:17:21.505Z"
}