{
  "contractName": "Math",
  "abi": [
    {
      "constant": true,
      "inputs": [
        {
          "name": "self",
          "type": "uint256"
        },
        {
          "name": "other",
          "type": "uint256"
        }
      ],
      "name": "times",
      "outputs": [
        {
          "name": "product",
          "type": "uint256"
        }
      ],
      "payable": false,
      "stateMutability": "pure",
      "type": "function"
    }
  ],
  "bytecode": "0x610168610030600b82828239805160001a6073146000811461002057610022565bfe5b5030600052607381538281f3007300000000000000000000000000000000000000003014608060405260043610610058576000357c0100000000000000000000000000000000000000000000000000000000900463ffffffff1680631d3b9edf1461005d575b600080fd5b610085600480360381019080803590602001909291908035906020019092919050505061009b565b6040518082815260200191505060405180910390f35b6000808314156100ae5760009050610136565b81830290508183828115156100bf57fe5b04141515610135576040517f08c379a00000000000000000000000000000000000000000000000000000000081526004018080602001828103825260118152602001807f496e7465676572206f766572666c6f772e00000000000000000000000000000081525060200191505060405180910390fd5b5b929150505600a165627a7a72305820af4b043d2ab32e28b0869a8d59bc3a9a7632f9f7e11ac66443896ad17c6efca10029",
  "source": "pragma solidity ^0.4.24;\n\n/// @title Safe Math\n/// @author Adam Fraser\nlibrary Math {\n\n    /// @notice Multiplies two integers, checking for underflow.\n    /// @param self The first integer.\n    /// @param other The second integer.\n    /// @return The product.\n    function times(uint self, uint other) public pure returns (uint product) {\n        if (self == 0) {\n            product = 0;\n        } else {\n            product = self * other;\n            require(product / self == other, \"Integer overflow.\");\n        }\n    }      \n}\n",
  "sourcePath": "/Users/adamfraser/Documents/online-marketplace/contracts/Math.sol",
  "compiler": {
    "name": "solc",
    "version": "0.4.24+commit.e67f0147.Emscripten.clang"
  },
  "schemaVersion": "2.0.1",
  "updatedAt": "2018-08-28T06:17:21.492Z"
}